{
  "transactions": [
    {
      "hash": "0x5d944827dafc4c81d002b831893df29c570d207bf21a6d37afca45c43407a7e6",
      "transactionType": "CREATE",
      "contractName": "EmptyContract",
      "contractAddress": "0x4d65bf2008193cbbfc6aababebaba6f6a0c2ef43",
      "function": null,
      "arguments": null,
      "transaction": {
        "from": "0x45bd8ea16cfeb0d937a2d98cbeb0300e3e689fe7",
        "gas": "0x191db",
        "value": "0x0",
        "input": "0x6080604052348015600f57600080fd5b50607780601d6000396000f3fe6080604052348015600f57600080fd5b506004361060285760003560e01c8063c298557814602d575b600080fd5b600060405190815260200160405180910390f3fea264697066735822122084a90e11564cf686583f7160ce226c0aa0e96a91a28b5ec05f5c6c814d69883e64736f6c63430008160033",
        "nonce": "0x628",
        "chainId": "0x1524e"
      },
      "additionalContracts": [],
      "isFixedGasLimit": false
    },
    {
      "hash": "0x2f7530dc1d568e7cf11cd68b336718b92afb8f8da012e828ff6c79496e74375d",
      "transactionType": "CREATE",
      "contractName": "TransparentUpgradeableProxy",
      "contractAddress": "0x5972aebb036130b810bc7e1406a92f07ca350ef0",
      "function": null,
      "arguments": [
        "0x4D65bf2008193CBBFc6AABAbebAbA6f6a0C2Ef43",
        "0x45Bd8ea16cFEB0D937a2D98cBEb0300e3E689Fe7",
        "0x"
      ],
      "transaction": {
        "from": "0x45bd8ea16cfeb0d937a2d98cbeb0300e3e689fe7",
        "gas": "0xd26b8",
        "value": "0x0",
        "input": "0x60a060405260405162000eb138038062000eb18339810160408190526200002691620003cd565b82816200003482826200009c565b505081604051620000459062000366565b6001600160a01b039091168152602001604051809103906000f08015801562000072573d6000803e3d6000fd5b506001600160a01b0316608052620000936200008d60805190565b62000102565b505050620004cb565b620000a78262000174565b6040516001600160a01b038316907fbc7cd75a20ee27fd9adebab32041f755214dbc6bffa90cc0225b39da2e5c2d3b90600090a2805115620000f457620000ef8282620001f4565b505050565b620000fe62000271565b5050565b7f7e644d79422f17c01e4894b5f4f588d331ebfa28653d42ae832dc59e38c9798f6200014460008051602062000e91833981519152546001600160a01b031690565b604080516001600160a01b03928316815291841660208301520160405180910390a1620001718162000293565b50565b806001600160a01b03163b600003620001b057604051634c9c8ce360e01b81526001600160a01b03821660048201526024015b60405180910390fd5b807f360894a13ba1a3210667c828492db98dca3e2076cc3735a920a3ca505d382bbc5b80546001600160a01b0319166001600160a01b039290921691909117905550565b6060600080846001600160a01b031684604051620002139190620004ad565b600060405180830381855af49150503d806000811462000250576040519150601f19603f3d011682016040523d82523d6000602084013e62000255565b606091505b50909250905062000268858383620002d6565b95945050505050565b3415620002915760405163b398979f60e01b815260040160405180910390fd5b565b6001600160a01b038116620002bf57604051633173bdd160e11b815260006004820152602401620001a7565b8060008051602062000e91833981519152620001d3565b606082620002ef57620002e9826200033c565b62000335565b81511580156200030757506001600160a01b0384163b155b156200033257604051639996b31560e01b81526001600160a01b0385166004820152602401620001a7565b50805b9392505050565b8051156200034d5780518082602001fd5b60405163d6bda27560e01b815260040160405180910390fd5b610524806200096d83390190565b80516001600160a01b03811681146200038c57600080fd5b919050565b634e487b7160e01b600052604160045260246000fd5b60005b83811015620003c4578181015183820152602001620003aa565b50506000910152565b600080600060608486031215620003e357600080fd5b620003ee8462000374565b9250620003fe6020850162000374565b60408501519092506001600160401b03808211156200041c57600080fd5b818601915086601f8301126200043157600080fd5b81518181111562000446576200044662000391565b604051601f8201601f19908116603f0116810190838211818310171562000471576200047162000391565b816040528281528960208487010111156200048b57600080fd5b6200049e836020830160208801620003a7565b80955050505050509250925092565b60008251620004c1818460208701620003a7565b9190910192915050565b608051610487620004e66000396000601001526104876000f3fe608060405261000c61000e565b005b7f00000000000000000000000000000000000000000000000000000000000000006001600160a01b0316330361007b576000356001600160e01b03191663278f794360e11b14610071576040516334ad5dbb60e21b815260040160405180910390fd5b610079610083565b565b6100796100b2565b6000806100933660048184610312565b8101906100a09190610352565b915091506100ae82826100c2565b5050565b6100796100bd61011d565b610155565b6100cb82610179565b6040516001600160a01b038316907fbc7cd75a20ee27fd9adebab32041f755214dbc6bffa90cc0225b39da2e5c2d3b90600090a28051156101155761011082826101f5565b505050565b6100ae61026b565b60006101507f360894a13ba1a3210667c828492db98dca3e2076cc3735a920a3ca505d382bbc546001600160a01b031690565b905090565b3660008037600080366000845af43d6000803e808015610174573d6000f35b3d6000fd5b806001600160a01b03163b6000036101b457604051634c9c8ce360e01b81526001600160a01b03821660048201526024015b60405180910390fd5b7f360894a13ba1a3210667c828492db98dca3e2076cc3735a920a3ca505d382bbc80546001600160a01b0319166001600160a01b0392909216919091179055565b6060600080846001600160a01b0316846040516102129190610422565b600060405180830381855af49150503d806000811461024d576040519150601f19603f3d011682016040523d82523d6000602084013e610252565b606091505b509150915061026285838361028a565b95945050505050565b34156100795760405163b398979f60e01b815260040160405180910390fd5b60608261029f5761029a826102e9565b6102e2565b81511580156102b657506001600160a01b0384163b155b156102df57604051639996b31560e01b81526001600160a01b03851660048201526024016101ab565b50805b9392505050565b8051156102f95780518082602001fd5b60405163d6bda27560e01b815260040160405180910390fd5b6000808585111561032257600080fd5b8386111561032f57600080fd5b5050820193919092039150565b634e487b7160e01b600052604160045260246000fd5b6000806040838503121561036557600080fd5b82356001600160a01b038116811461037c57600080fd5b9150602083013567ffffffffffffffff8082111561039957600080fd5b818501915085601f8301126103ad57600080fd5b8135818111156103bf576103bf61033c565b604051601f8201601f19908116603f011681019083821181831017156103e7576103e761033c565b8160405282815288602084870101111561040057600080fd5b8260208601602083013760006020848301015280955050505050509250929050565b6000825160005b818110156104435760208186018101518583015201610429565b50600092019182525091905056fea2646970667358221220c7ade8cb885b940cff4f43519c4386c6d0b4e108e8132ccb792b27f5aaedf26464736f6c63430008160033608060405234801561001057600080fd5b5060405161052438038061052483398101604081905261002f916100be565b806001600160a01b03811661005e57604051631e4fbdf760e01b81526000600482015260240160405180910390fd5b6100678161006e565b50506100ee565b600080546001600160a01b038381166001600160a01b0319831681178455604051919092169283917f8be0079c531659141344cd1fd0a4f28419497f9722a3daafe3b4186f6b6457e09190a35050565b6000602082840312156100d057600080fd5b81516001600160a01b03811681146100e757600080fd5b9392505050565b610427806100fd6000396000f3fe60806040526004361061004a5760003560e01c8063715018a61461004f5780638da5cb5b146100665780639623609d14610093578063ad3cb1cc146100a6578063f2fde38b146100e4575b600080fd5b34801561005b57600080fd5b50610064610104565b005b34801561007257600080fd5b506000546040516001600160a01b0390911681526020015b60405180910390f35b6100646100a1366004610272565b610118565b3480156100b257600080fd5b506100d7604051806040016040528060058152602001640352e302e360dc1b81525081565b60405161008a919061038e565b3480156100f057600080fd5b506100646100ff3660046103a8565b610187565b61010c6101ca565b61011660006101f7565b565b6101206101ca565b60405163278f794360e11b81526001600160a01b03841690634f1ef28690349061015090869086906004016103c5565b6000604051808303818588803b15801561016957600080fd5b505af115801561017d573d6000803e3d6000fd5b5050505050505050565b61018f6101ca565b6001600160a01b0381166101be57604051631e4fbdf760e01b8152600060048201526024015b60405180910390fd5b6101c7816101f7565b50565b6000546001600160a01b031633146101165760405163118cdaa760e01b81523360048201526024016101b5565b600080546001600160a01b038381166001600160a01b0319831681178455604051919092169283917f8be0079c531659141344cd1fd0a4f28419497f9722a3daafe3b4186f6b6457e09190a35050565b6001600160a01b03811681146101c757600080fd5b634e487b7160e01b600052604160045260246000fd5b60008060006060848603121561028757600080fd5b833561029281610247565b925060208401356102a281610247565b9150604084013567ffffffffffffffff808211156102bf57600080fd5b818601915086601f8301126102d357600080fd5b8135818111156102e5576102e561025c565b604051601f8201601f19908116603f0116810190838211818310171561030d5761030d61025c565b8160405282815289602084870101111561032657600080fd5b8260208601602083013760006020848301015280955050505050509250925092565b6000815180845260005b8181101561036e57602081850181015186830182015201610352565b506000602082860101526020601f19601f83011685010191505092915050565b6020815260006103a16020830184610348565b9392505050565b6000602082840312156103ba57600080fd5b81356103a181610247565b6001600160a01b03831681526040602082018190526000906103e990830184610348565b94935050505056fea2646970667358221220440123671324855b343ef16f94f9861a9eca48fb5ad81cd36d3080d9e07e7c4364736f6c63430008160033b53127684a568b3173ae13b9f8a6016e243e63b6e8ee1178d6a717850b5d61030000000000000000000000004d65bf2008193cbbfc6aababebaba6f6a0c2ef4300000000000000000000000045bd8ea16cfeb0d937a2d98cbeb0300e3e689fe700000000000000000000000000000000000000000000000000000000000000600000000000000000000000000000000000000000000000000000000000000000",
        "nonce": "0x629",
        "chainId": "0x1524e"
      },
      "additionalContracts": [
        {
          "transactionType": "CREATE",
          "address": "0x11afa35ecba04b32dbdfa940536053b2180f9524",
          "initCode": "0x608060405234801561001057600080fd5b5060405161052438038061052483398101604081905261002f916100be565b806001600160a01b03811661005e57604051631e4fbdf760e01b81526000600482015260240160405180910390fd5b6100678161006e565b50506100ee565b600080546001600160a01b038381166001600160a01b0319831681178455604051919092169283917f8be0079c531659141344cd1fd0a4f28419497f9722a3daafe3b4186f6b6457e09190a35050565b6000602082840312156100d057600080fd5b81516001600160a01b03811681146100e757600080fd5b9392505050565b610427806100fd6000396000f3fe60806040526004361061004a5760003560e01c8063715018a61461004f5780638da5cb5b146100665780639623609d14610093578063ad3cb1cc146100a6578063f2fde38b146100e4575b600080fd5b34801561005b57600080fd5b50610064610104565b005b34801561007257600080fd5b506000546040516001600160a01b0390911681526020015b60405180910390f35b6100646100a1366004610272565b610118565b3480156100b257600080fd5b506100d7604051806040016040528060058152602001640352e302e360dc1b81525081565b60405161008a919061038e565b3480156100f057600080fd5b506100646100ff3660046103a8565b610187565b61010c6101ca565b61011660006101f7565b565b6101206101ca565b60405163278f794360e11b81526001600160a01b03841690634f1ef28690349061015090869086906004016103c5565b6000604051808303818588803b15801561016957600080fd5b505af115801561017d573d6000803e3d6000fd5b5050505050505050565b61018f6101ca565b6001600160a01b0381166101be57604051631e4fbdf760e01b8152600060048201526024015b60405180910390fd5b6101c7816101f7565b50565b6000546001600160a01b031633146101165760405163118cdaa760e01b81523360048201526024016101b5565b600080546001600160a01b038381166001600160a01b0319831681178455604051919092169283917f8be0079c531659141344cd1fd0a4f28419497f9722a3daafe3b4186f6b6457e09190a35050565b6001600160a01b03811681146101c757600080fd5b634e487b7160e01b600052604160045260246000fd5b60008060006060848603121561028757600080fd5b833561029281610247565b925060208401356102a281610247565b9150604084013567ffffffffffffffff808211156102bf57600080fd5b818601915086601f8301126102d357600080fd5b8135818111156102e5576102e561025c565b604051601f8201601f19908116603f0116810190838211818310171561030d5761030d61025c565b8160405282815289602084870101111561032657600080fd5b8260208601602083013760006020848301015280955050505050509250925092565b6000815180845260005b8181101561036e57602081850181015186830182015201610352565b506000602082860101526020601f19601f83011685010191505092915050565b6020815260006103a16020830184610348565b9392505050565b6000602082840312156103ba57600080fd5b81356103a181610247565b6001600160a01b03831681526040602082018190526000906103e990830184610348565b94935050505056fea2646970667358221220440123671324855b343ef16f94f9861a9eca48fb5ad81cd36d3080d9e07e7c4364736f6c6343000816003300000000000000000000000045bd8ea16cfeb0d937a2d98cbeb0300e3e689fe7"
        }
      ],
      "isFixedGasLimit": false
    },
    {
      "hash": "0x2da4501caac2472f060b5ee5ca31448d3bc22ba1c85277aad9544183965fd77a",
      "transactionType": "CREATE",
      "contractName": "OraclePod",
      "contractAddress": "0x5fd96152d882925d81f94ab34c922d319ced7d28",
      "function": null,
      "arguments": null,
      "transaction": {
        "from": "0x45bd8ea16cfeb0d937a2d98cbeb0300e3e689fe7",
        "gas": "0x77550",
        "value": "0x0",
        "input": "0x608060405234801561001057600080fd5b5061001961001e565b6100d0565b7ff0c57e16840df040f15088dc2f81fe391c3923bec73e23a9662efc9c229c6a00805468010000000000000000900460ff161561006e5760405163f92ee8a960e01b815260040160405180910390fd5b80546001600160401b03908116146100cd5780546001600160401b0319166001600160401b0390811782556040519081527fc7f505b2f371ae2175ee4913f4499e1f2633a7b5936321eed1cdaeb6115181d29060200160405180910390a15b50565b61055c806100df6000396000f3fe608060405234801561001057600080fd5b50600436106100885760003560e01c80638da5cb5b1161005b5780638da5cb5b146100f15780639084b1ce14610121578063e286b66414610134578063f2fde38b1461013c57600080fd5b806345a153881461008d578063485cc955146100a9578063565d878c146100be578063715018a6146100e9575b600080fd5b61009660015481565b6040519081526020015b60405180910390f35b6100bc6100b73660046104b8565b61014f565b005b6000546100d1906001600160a01b031681565b6040516001600160a01b0390911681526020016100a0565b6100bc610284565b7f9016d09d72d40fdae2fd8ceac6b6234c7706214fd39c1cd1e609a0528c199300546001600160a01b03166100d1565b6100bc61012f3660046104eb565b610298565b600154610096565b6100bc61014a366004610504565b610330565b7ff0c57e16840df040f15088dc2f81fe391c3923bec73e23a9662efc9c229c6a008054600160401b810460ff16159067ffffffffffffffff166000811580156101955750825b905060008267ffffffffffffffff1660011480156101b25750303b155b9050811580156101c0575080155b156101de5760405163f92ee8a960e01b815260040160405180910390fd5b845467ffffffffffffffff19166001178555831561020857845460ff60401b1916600160401b1785555b6102118761036e565b61021a8761037f565b600080546001600160a01b0319166001600160a01b038816179055831561027b57845460ff60401b19168555604051600181527fc7f505b2f371ae2175ee4913f4499e1f2633a7b5936321eed1cdaeb6115181d29060200160405180910390a15b50505050505050565b61028c6103f0565b610296600061037f565b565b6000546001600160a01b0316331461032b5760405162461bcd60e51b815260206004820152604560248201527f4f7261636c65506f642e6f6e6c794f7261636c654d616e616765723a2063616c60448201527f6c6572206973206e6f7420746865206f7261636c65206d616e61676572206164606482015264647265737360d81b608482015260a4015b60405180910390fd5b600155565b6103386103f0565b6001600160a01b03811661036257604051631e4fbdf760e01b815260006004820152602401610322565b61036b8161037f565b50565b61037661044b565b61036b81610494565b7f9016d09d72d40fdae2fd8ceac6b6234c7706214fd39c1cd1e609a0528c19930080546001600160a01b031981166001600160a01b03848116918217845560405192169182907f8be0079c531659141344cd1fd0a4f28419497f9722a3daafe3b4186f6b6457e090600090a3505050565b336104227f9016d09d72d40fdae2fd8ceac6b6234c7706214fd39c1cd1e609a0528c199300546001600160a01b031690565b6001600160a01b0316146102965760405163118cdaa760e01b8152336004820152602401610322565b7ff0c57e16840df040f15088dc2f81fe391c3923bec73e23a9662efc9c229c6a0054600160401b900460ff1661029657604051631afcd79f60e31b815260040160405180910390fd5b61033861044b565b80356001600160a01b03811681146104b357600080fd5b919050565b600080604083850312156104cb57600080fd5b6104d48361049c565b91506104e26020840161049c565b90509250929050565b6000602082840312156104fd57600080fd5b5035919050565b60006020828403121561051657600080fd5b61051f8261049c565b939250505056fea26469706673582212201882b2e85da11314672e536a6c6459f8e4952d7dae7d74ce39be93c4db9424a464736f6c63430008160033",
        "nonce": "0x62a",
        "chainId": "0x1524e"
      },
      "additionalContracts": [],
      "isFixedGasLimit": false
    },
    {
      "hash": "0x400c0a58906ae5f25aca37b30804a48ca26988b6271a585443e0f0f436630da2",
      "transactionType": "CALL",
      "contractName": "ProxyAdmin",
      "contractAddress": "0x11afa35ecba04b32dbdfa940536053b2180f9524",
      "function": "upgradeAndCall(address,address,bytes)",
      "arguments": [
        "0x5972AEbB036130B810BC7e1406A92f07Ca350ef0",
        "0x5fd96152D882925D81F94ab34C922d319CeD7d28",
        "0x485cc95500000000000000000000000045bd8ea16cfeb0d937a2d98cbeb0300e3e689fe7000000000000000000000000b3ad8088eee23be1659218ff54d3d1c5ae7f81f0"
      ],
      "transaction": {
        "from": "0x45bd8ea16cfeb0d937a2d98cbeb0300e3e689fe7",
        "to": "0x11afa35ecba04b32dbdfa940536053b2180f9524",
        "gas": "0x28201",
        "value": "0x0",
        "input": "0x9623609d0000000000000000000000005972aebb036130b810bc7e1406a92f07ca350ef00000000000000000000000005fd96152d882925d81f94ab34c922d319ced7d2800000000000000000000000000000000000000000000000000000000000000600000000000000000000000000000000000000000000000000000000000000044485cc95500000000000000000000000045bd8ea16cfeb0d937a2d98cbeb0300e3e689fe7000000000000000000000000b3ad8088eee23be1659218ff54d3d1c5ae7f81f000000000000000000000000000000000000000000000000000000000",
        "nonce": "0x62b",
        "chainId": "0x1524e"
      },
      "additionalContracts": [],
      "isFixedGasLimit": false
    },
    {
      "hash": "0xb9433a846f57f94a217af76a997351b578823c7b9c291436680291da671aa643",
      "transactionType": "CALL",
      "contractName": null,
      "contractAddress": "0xb3ad8088eee23be1659218ff54d3d1c5ae7f81f0",
      "function": "addOraclePodToFillWhitelist(address)",
      "arguments": [
        "0x5972AEbB036130B810BC7e1406A92f07Ca350ef0"
      ],
      "transaction": {
        "from": "0x45bd8ea16cfeb0d937a2d98cbeb0300e3e689fe7",
        "to": "0xb3ad8088eee23be1659218ff54d3d1c5ae7f81f0",
        "gas": "0x1196e",
        "value": "0x0",
        "input": "0x7943b99f0000000000000000000000005972aebb036130b810bc7e1406a92f07ca350ef0",
        "nonce": "0x62c",
        "chainId": "0x1524e"
      },
      "additionalContracts": [],
      "isFixedGasLimit": false
    }
  ],
  "receipts": [
    {
      "status": "0x1",
      "cumulativeGasUsed": "0x13529",
      "logs": [],
      "logsBloom": "0x00000000000000000000000000000000000000000000000000000000000000000000000000000000000000000000000000000000000000000000000000000000000000000000000000000000000000000000000000000000000000000000000000000000000000000000000000000000000000000000000000000000000000000000000000000000000000000000000000000000000000000000000000000000000000000000000000000000000000000000000000000000000000000000000000000000000000000000000000000000000000000000000000000000000000000000000000000000000000000000000000000000000000000000000000000000",
      "type": "0x2",
      "transactionHash": "0x5d944827dafc4c81d002b831893df29c570d207bf21a6d37afca45c43407a7e6",
      "transactionIndex": "0x0",
      "blockHash": "0x9f0d0b563ad7c5b9ea7f4cc97af510ba6af59bb7ac2a04886df9b152f46e04e8",
      "blockNumber": "0x40e49",
      "gasUsed": "0x13529",
      "effectiveGasPrice": "0xfa",
      "from": "0x45bd8ea16cfeb0d937a2d98cbeb0300e3e689fe7",
      "to": null,
      "contractAddress": "0x4d65bf2008193cbbfc6aababebaba6f6a0c2ef43"
    },
    {
      "status": "0x1",
      "cumulativeGasUsed": "0xb543c",
      "logs": [
        {
          "address": "0x5972aebb036130b810bc7e1406a92f07ca350ef0",
          "topics": [
            "0xbc7cd75a20ee27fd9adebab32041f755214dbc6bffa90cc0225b39da2e5c2d3b",
            "0x0000000000000000000000004d65bf2008193cbbfc6aababebaba6f6a0c2ef43"
          ],
          "data": "0x",
          "blockHash": "0x9f0d0b563ad7c5b9ea7f4cc97af510ba6af59bb7ac2a04886df9b152f46e04e8",
          "blockNumber": "0x40e49",
          "transactionHash": "0x2f7530dc1d568e7cf11cd68b336718b92afb8f8da012e828ff6c79496e74375d",
          "transactionIndex": "0x1",
          "logIndex": "0x0",
          "removed": false
        },
        {
          "address": "0x11afa35ecba04b32dbdfa940536053b2180f9524",
          "topics": [
            "0x8be0079c531659141344cd1fd0a4f28419497f9722a3daafe3b4186f6b6457e0",
            "0x0000000000000000000000000000000000000000000000000000000000000000",
            "0x00000000000000000000000045bd8ea16cfeb0d937a2d98cbeb0300e3e689fe7"
          ],
          "data": "0x",
          "blockHash": "0x9f0d0b563ad7c5b9ea7f4cc97af510ba6af59bb7ac2a04886df9b152f46e04e8",
          "blockNumber": "0x40e49",
          "transactionHash": "0x2f7530dc1d568e7cf11cd68b336718b92afb8f8da012e828ff6c79496e74375d",
          "transactionIndex": "0x1",
          "logIndex": "0x1",
          "removed": false
        },
        {
          "address": "0x5972aebb036130b810bc7e1406a92f07ca350ef0",
          "topics": [
            "0x7e644d79422f17c01e4894b5f4f588d331ebfa28653d42ae832dc59e38c9798f"
          ],
          "data": "0x000000000000000000000000000000000000000000000000000000000000000000000000000000000000000011afa35ecba04b32dbdfa940536053b2180f9524",
          "blockHash": "0x9f0d0b563ad7c5b9ea7f4cc97af510ba6af59bb7ac2a04886df9b152f46e04e8",
          "blockNumber": "0x40e49",
          "transactionHash": "0x2f7530dc1d568e7cf11cd68b336718b92afb8f8da012e828ff6c79496e74375d",
          "transactionIndex": "0x1",
          "logIndex": "0x2",
          "removed": false
        }
      ],
      "logsBloom": "0x00000000004000000040000000000000400000000000000000800800000000000000000000000000000000000000000000000000000000000000000000080000000000000000000000000000000002000001000000004000000000000000000000000000028000000800000000000800000000800000000000000000000000400000000000000000000000000000000000000000000000000000000000800000000000000000000000000000000000000000000000020000000000000000000000000120000000000000000000000000000000000400200000000000000030000000000080000000000000000000000000000000000000000000000000000000",
      "type": "0x2",
      "transactionHash": "0x2f7530dc1d568e7cf11cd68b336718b92afb8f8da012e828ff6c79496e74375d",
      "transactionIndex": "0x1",
      "blockHash": "0x9f0d0b563ad7c5b9ea7f4cc97af510ba6af59bb7ac2a04886df9b152f46e04e8",
      "blockNumber": "0x40e49",
      "gasUsed": "0xa1f13",
      "effectiveGasPrice": "0xfa",
      "from": "0x45bd8ea16cfeb0d937a2d98cbeb0300e3e689fe7",
      "to": null,
      "contractAddress": "0x5972aebb036130b810bc7e1406a92f07ca350ef0"
    },
    {
      "status": "0x1",
      "cumulativeGasUsed": "0x111154",
      "logs": [
        {
          "address": "0x5fd96152d882925d81f94ab34c922d319ced7d28",
          "topics": [
            "0xc7f505b2f371ae2175ee4913f4499e1f2633a7b5936321eed1cdaeb6115181d2"
          ],
          "data": "0x000000000000000000000000000000000000000000000000ffffffffffffffff",
          "blockHash": "0x9f0d0b563ad7c5b9ea7f4cc97af510ba6af59bb7ac2a04886df9b152f46e04e8",
          "blockNumber": "0x40e49",
          "transactionHash": "0x2da4501caac2472f060b5ee5ca31448d3bc22ba1c85277aad9544183965fd77a",
          "transactionIndex": "0x2",
          "logIndex": "0x3",
          "removed": false
        }
      ],
      "logsBloom": "0x00000000000000000000000000000000000000000000000000000000000000000000000000000000000000000000000000000000000000000000000000000000000000000080000000000000000000000000000000000000000000000000000000000000000000000000000000000000000000000000000000000000000000000000000000100000000800000000000000000000000080000000000000000000000000000000000000000000000000000000000000000000000000000000000400000000000000000000000000000000000000000004000000000000000000000000000000000000000000000000000000000000000000000000000000000000",
      "type": "0x2",
      "transactionHash": "0x2da4501caac2472f060b5ee5ca31448d3bc22ba1c85277aad9544183965fd77a",
      "transactionIndex": "0x2",
      "blockHash": "0x9f0d0b563ad7c5b9ea7f4cc97af510ba6af59bb7ac2a04886df9b152f46e04e8",
      "blockNumber": "0x40e49",
      "gasUsed": "0x5bd18",
      "effectiveGasPrice": "0xfa",
      "from": "0x45bd8ea16cfeb0d937a2d98cbeb0300e3e689fe7",
      "to": null,
      "contractAddress": "0x5fd96152d882925d81f94ab34c922d319ced7d28"
    },
    {
      "status": "0x1",
      "cumulativeGasUsed": "0x12c84f",
      "logs": [
        {
          "address": "0x5972aebb036130b810bc7e1406a92f07ca350ef0",
          "topics": [
            "0xbc7cd75a20ee27fd9adebab32041f755214dbc6bffa90cc0225b39da2e5c2d3b",
            "0x0000000000000000000000005fd96152d882925d81f94ab34c922d319ced7d28"
          ],
          "data": "0x",
          "blockHash": "0x9f0d0b563ad7c5b9ea7f4cc97af510ba6af59bb7ac2a04886df9b152f46e04e8",
          "blockNumber": "0x40e49",
          "transactionHash": "0x400c0a58906ae5f25aca37b30804a48ca26988b6271a585443e0f0f436630da2",
          "transactionIndex": "0x3",
          "logIndex": "0x4",
          "removed": false
        },
        {
          "address": "0x5972aebb036130b810bc7e1406a92f07ca350ef0",
          "topics": [
            "0x8be0079c531659141344cd1fd0a4f28419497f9722a3daafe3b4186f6b6457e0",
            "0x0000000000000000000000000000000000000000000000000000000000000000",
            "0x00000000000000000000000045bd8ea16cfeb0d937a2d98cbeb0300e3e689fe7"
          ],
          "data": "0x",
          "blockHash": "0x9f0d0b563ad7c5b9ea7f4cc97af510ba6af59bb7ac2a04886df9b152f46e04e8",
          "blockNumber": "0x40e49",
          "transactionHash": "0x400c0a58906ae5f25aca37b30804a48ca26988b6271a585443e0f0f436630da2",
          "transactionIndex": "0x3",
          "logIndex": "0x5",
          "removed": false
        },
        {
          "address": "0x5972aebb036130b810bc7e1406a92f07ca350ef0",
          "topics": [
            "0x8be0079c531659141344cd1fd0a4f28419497f9722a3daafe3b4186f6b6457e0",
            "0x00000000000000000000000045bd8ea16cfeb0d937a2d98cbeb0300e3e689fe7",
            "0x00000000000000000000000045bd8ea16cfeb0d937a2d98cbeb0300e3e689fe7"
          ],
          "data": "0x",
          "blockHash": "0x9f0d0b563ad7c5b9ea7f4cc97af510ba6af59bb7ac2a04886df9b152f46e04e8",
          "blockNumber": "0x40e49",
          "transactionHash": "0x400c0a58906ae5f25aca37b30804a48ca26988b6271a585443e0f0f436630da2",
          "transactionIndex": "0x3",
          "logIndex": "0x6",
          "removed": false
        },
        {
          "address": "0x5972aebb036130b810bc7e1406a92f07ca350ef0",
          "topics": [
            "0xc7f505b2f371ae2175ee4913f4499e1f2633a7b5936321eed1cdaeb6115181d2"
          ],
          "data": "0x0000000000000000000000000000000000000000000000000000000000000001",
          "blockHash": "0x9f0d0b563ad7c5b9ea7f4cc97af510ba6af59bb7ac2a04886df9b152f46e04e8",
          "blockNumber": "0x40e49",
          "transactionHash": "0x400c0a58906ae5f25aca37b30804a48ca26988b6271a585443e0f0f436630da2",
          "transactionIndex": "0x3",
          "logIndex": "0x7",
          "removed": false
        }
      ],
      "logsBloom": "0x00000000000000000040000000000000400000000000000000800800000000000000000000000800000000000000000000000000000000000000000000000000000000000000000000000000000002000001000000004000000000000000000000000000020000000800000000000800000000000000000000000000000000400000000000000000000800000000000000000000000080000000000000000000000000000000000000000000000000000000000000020000000000000040000000000020000000000000000000000000000000000004200000000000000020000000000000000000000000000000000002000000000000000000000000000000",
      "type": "0x2",
      "transactionHash": "0x400c0a58906ae5f25aca37b30804a48ca26988b6271a585443e0f0f436630da2",
      "transactionIndex": "0x3",
      "blockHash": "0x9f0d0b563ad7c5b9ea7f4cc97af510ba6af59bb7ac2a04886df9b152f46e04e8",
      "blockNumber": "0x40e49",
      "gasUsed": "0x1b6fb",
      "effectiveGasPrice": "0xfa",
      "from": "0x45bd8ea16cfeb0d937a2d98cbeb0300e3e689fe7",
      "to": "0x11afa35ecba04b32dbdfa940536053b2180f9524",
      "contractAddress": null
    },
    {
      "status": "0x1",
      "cumulativeGasUsed": "0x13940f",
      "logs": [
        {
          "address": "0xb3ad8088eee23be1659218ff54d3d1c5ae7f81f0",
          "topics": [
            "0x7da7409f8db3ec60d78c584483d3becc82a2c4891002c9eb6d4d41f2983f46f3"
          ],
          "data": "0x0000000000000000000000005972aebb036130b810bc7e1406a92f07ca350ef0",
          "blockHash": "0x9f0d0b563ad7c5b9ea7f4cc97af510ba6af59bb7ac2a04886df9b152f46e04e8",
          "blockNumber": "0x40e49",
          "transactionHash": "0xb9433a846f57f94a217af76a997351b578823c7b9c291436680291da671aa643",
          "transactionIndex": "0x4",
          "logIndex": "0x8",
          "removed": false
        }
      ],
      "logsBloom": "0x00000000000000000000400000000000000000000000000000000000000000000000000000000000000000000000000000000000000000000040000000000000000000000000000000000000000000000000000020000000000000000000000000000000000000000000000000000000000010000000000000000000000000000000000000000000000000000000000000000000000000000000000000000000000000000000000000000000000000000000000000000000000000000000000000000000000000000000000000000000000000000000000000000000000000000008000000000000000000000000000800000000000000000000000000000000",
      "type": "0x2",
      "transactionHash": "0xb9433a846f57f94a217af76a997351b578823c7b9c291436680291da671aa643",
      "transactionIndex": "0x4",
      "blockHash": "0x9f0d0b563ad7c5b9ea7f4cc97af510ba6af59bb7ac2a04886df9b152f46e04e8",
      "blockNumber": "0x40e49",
      "gasUsed": "0xcbc0",
      "effectiveGasPrice": "0xfa",
      "from": "0x45bd8ea16cfeb0d937a2d98cbeb0300e3e689fe7",
      "to": "0xb3ad8088eee23be1659218ff54d3d1c5ae7f81f0",
      "contractAddress": null
    }
  ],
  "libraries": [],
  "pending": [],
  "returns": {},
  "timestamp": 1752736920,
  "chain": 86606,
  "commit": "9592ac8"
}